{
  "contractName": "BaseVote",
  "abi": [
    {
      "inputs": [
        {
          "internalType": "bytes16[]",
          "name": "keys",
          "type": "bytes16[]"
        },
        {
          "internalType": "string[]",
          "name": "cands",
          "type": "string[]"
        },
        {
          "internalType": "address[]",
          "name": "parts",
          "type": "address[]"
        },
        {
          "internalType": "bool",
          "name": "pub",
          "type": "bool"
        },
        {
          "internalType": "uint256",
          "name": "lifetime",
          "type": "uint256"
        }
      ],
      "payable": false,
      "stateMutability": "nonpayable",
      "type": "constructor"
    },
    {
      "constant": true,
      "inputs": [],
      "name": "expiry",
      "outputs": [
        {
          "internalType": "uint256",
          "name": "",
          "type": "uint256"
        }
      ],
      "payable": false,
      "stateMutability": "view",
      "type": "function"
    },
    {
      "constant": true,
      "inputs": [],
      "name": "open",
      "outputs": [
        {
          "internalType": "bool",
          "name": "",
          "type": "bool"
        }
      ],
      "payable": false,
      "stateMutability": "view",
      "type": "function"
    },
    {
      "constant": true,
      "inputs": [],
      "name": "proposer",
      "outputs": [
        {
          "internalType": "address",
          "name": "",
          "type": "address"
        }
      ],
      "payable": false,
      "stateMutability": "view",
      "type": "function"
    },
    {
      "constant": false,
      "inputs": [
        {
          "internalType": "address",
          "name": "voter",
          "type": "address"
        }
      ],
      "name": "giveRightToVote",
      "outputs": [],
      "payable": false,
      "stateMutability": "nonpayable",
      "type": "function"
    },
    {
      "constant": false,
      "inputs": [
        {
          "internalType": "bytes16",
          "name": "cand",
          "type": "bytes16"
        }
      ],
      "name": "vote",
      "outputs": [],
      "payable": false,
      "stateMutability": "nonpayable",
      "type": "function"
    },
    {
      "constant": true,
      "inputs": [],
      "name": "getAllCandidates",
      "outputs": [
        {
          "components": [
            {
              "internalType": "bytes16",
              "name": "key",
              "type": "bytes16"
            },
            {
              "internalType": "string",
              "name": "name",
              "type": "string"
            },
            {
              "internalType": "uint256",
              "name": "ballot",
              "type": "uint256"
            }
          ],
          "internalType": "struct BaseVote.CandidateInfo[]",
          "name": "cands",
          "type": "tuple[]"
        }
      ],
      "payable": false,
      "stateMutability": "view",
      "type": "function"
    },
    {
      "constant": true,
      "inputs": [
        {
          "internalType": "bytes16",
          "name": "key",
          "type": "bytes16"
        }
      ],
      "name": "getOneCandidate",
      "outputs": [
        {
          "components": [
            {
              "internalType": "bytes16",
              "name": "key",
              "type": "bytes16"
            },
            {
              "internalType": "string",
              "name": "name",
              "type": "string"
            },
            {
              "internalType": "uint256",
              "name": "ballot",
              "type": "uint256"
            }
          ],
          "internalType": "struct BaseVote.CandidateInfo",
          "name": "cand",
          "type": "tuple"
        }
      ],
      "payable": false,
      "stateMutability": "view",
      "type": "function"
    },
    {
      "constant": true,
      "inputs": [],
      "name": "getCandition",
      "outputs": [
        {
          "internalType": "uint256",
          "name": "total",
          "type": "uint256"
        },
        {
          "internalType": "uint256",
          "name": "done",
          "type": "uint256"
        }
      ],
      "payable": false,
      "stateMutability": "view",
      "type": "function"
    }
  ],
  "bytecode": "0x60806040523480156200001157600080fd5b5060405162002053380380620020538339818101604052620000379190810190620007f7565b33600160006101000a81548173ffffffffffffffffffffffffffffffffffffffff021916908373ffffffffffffffffffffffffffffffffffffffff16021790555081600160146101000a81548160ff0219169083151502179055508451604051908082528060200260200182016040528015620000c35781602001602082028038833980820191505090505b5060049080519060200190620000db929190620003eb565b508451600281905550600060038190555080420160008190555060008090505b85518110156200024d5760048682815181106200011457fe5b6020026020010151908060018154018082558091505090600182039060005260206000209060029182820401919006601002909192909190916101000a8154816fffffffffffffffffffffffffffffffff021916908360801c02179055505060405180606001604052808683815181106200018b57fe5b60200260200101518152602001600081526020016001151581525060056000888481518110620001b757fe5b60200260200101516fffffffffffffffffffffffffffffffff19166fffffffffffffffffffffffffffffffff19168152602001908152602001600020600082015181600001908051906020019062000211929190620004b7565b506020820151816001015560408201518160020160006101000a81548160ff0219169083151502179055509050508080600101915050620000fb565b5060008090505b8351811015620003df576040518060a0016040528060018152602001600015158152602001600073ffffffffffffffffffffffffffffffffffffffff168152602001600060801b6fffffffffffffffffffffffffffffffff191681526020016001151581525060066000868481518110620002cb57fe5b602002602001015173ffffffffffffffffffffffffffffffffffffffff1673ffffffffffffffffffffffffffffffffffffffff1681526020019081526020016000206000820151816000015560208201518160010160006101000a81548160ff02191690831515021790555060408201518160010160016101000a81548173ffffffffffffffffffffffffffffffffffffffff021916908373ffffffffffffffffffffffffffffffffffffffff16021790555060608201518160020160006101000a8154816fffffffffffffffffffffffffffffffff021916908360801c021790555060808201518160020160106101000a81548160ff021916908315150217905550905050808060010191505062000254565b50505050505062000aae565b82805482825590600052602060002090600101600290048101928215620004a45791602002820160005b838211156200046457835183826101000a8154816fffffffffffffffffffffffffffffffff021916908360801c02179055509260200192601001602081600f0104928301926001030262000415565b8015620004a25782816101000a8154906fffffffffffffffffffffffffffffffff0219169055601001602081600f0104928301926001030262000464565b505b509050620004b391906200053e565b5090565b828054600181600116156101000203166002900490600052602060002090601f016020900481019282601f10620004fa57805160ff19168380011785556200052b565b828001600101855582156200052b579182015b828111156200052a5782518255916020019190600101906200050d565b5b5090506200053a919062000580565b5090565b6200057d91905b808211156200057957600081816101000a8154906fffffffffffffffffffffffffffffffff02191690555060010162000545565b5090565b90565b620005a591905b80821115620005a157600081600090555060010162000587565b5090565b90565b600081519050620005b98162000a46565b92915050565b600082601f830112620005d157600080fd5b8151620005e8620005e282620008f2565b620008c4565b915081818352602084019350602081019050838560208402820111156200060e57600080fd5b60005b83811015620006425781620006278882620005a8565b84526020840193506020830192505060018101905062000611565b5050505092915050565b600082601f8301126200065e57600080fd5b8151620006756200066f826200091b565b620008c4565b915081818352602084019350602081019050838560208402820111156200069b57600080fd5b60005b83811015620006cf5781620006b488826200076d565b8452602084019350602083019250506001810190506200069e565b5050505092915050565b600082601f830112620006eb57600080fd5b815162000702620006fc8262000944565b620008c4565b9150818183526020840193506020810190508360005b838110156200074c578151860162000731888262000784565b84526020840193506020830192505060018101905062000718565b5050505092915050565b600081519050620007678162000a60565b92915050565b6000815190506200077e8162000a7a565b92915050565b600082601f8301126200079657600080fd5b8151620007ad620007a7826200096d565b620008c4565b91508082526020830160208301858383011115620007ca57600080fd5b620007d783828462000a10565b50505092915050565b600081519050620007f18162000a94565b92915050565b600080600080600060a086880312156200081057600080fd5b600086015167ffffffffffffffff8111156200082b57600080fd5b62000839888289016200064c565b955050602086015167ffffffffffffffff8111156200085757600080fd5b6200086588828901620006d9565b945050604086015167ffffffffffffffff8111156200088357600080fd5b6200089188828901620005bf565b9350506060620008a48882890162000756565b9250506080620008b788828901620007e0565b9150509295509295909350565b6000604051905081810181811067ffffffffffffffff82111715620008e857600080fd5b8060405250919050565b600067ffffffffffffffff8211156200090a57600080fd5b602082029050602081019050919050565b600067ffffffffffffffff8211156200093357600080fd5b602082029050602081019050919050565b600067ffffffffffffffff8211156200095c57600080fd5b602082029050602081019050919050565b600067ffffffffffffffff8211156200098557600080fd5b601f19601f8301169050602081019050919050565b6000620009a782620009e6565b9050919050565b60008115159050919050565b60007fffffffffffffffffffffffffffffffff0000000000000000000000000000000082169050919050565b600073ffffffffffffffffffffffffffffffffffffffff82169050919050565b6000819050919050565b60005b8381101562000a3057808201518184015260208101905062000a13565b8381111562000a40576000848401525b50505050565b62000a51816200099a565b811462000a5d57600080fd5b50565b62000a6b81620009ae565b811462000a7757600080fd5b50565b62000a8581620009ba565b811462000a9157600080fd5b50565b62000a9f8162000a06565b811462000aab57600080fd5b50565b6115958062000abe6000396000f3fe608060405234801561001057600080fd5b50600436106100885760003560e01c8063a8e4fb901161005b578063a8e4fb9014610102578063dd17807614610120578063e184c9be14610150578063fcfff16f1461016e57610088565b80631e43cc6a1461008d5780632e6997fe146100ac5780637d56c366146100ca5780639e7b8d61146100e6575b600080fd5b61009561018c565b6040516100a39291906113dd565b60405180910390f35b6100b4610286565b6040516100c191906112a3565b60405180910390f35b6100e460048036036100df9190810190610e9a565b6105bf565b005b61010060048036036100fb9190810190610e71565b6108ca565b005b61010a610adf565b6040516101179190611288565b60405180910390f35b61013a60048036036101359190810190610e9a565b610b05565b60405161014791906113a0565b60405180910390f35b610158610dc6565b60405161016591906113c2565b60405180910390f35b610176610dcc565b60405161018391906112c5565b60405180910390f35b60008033600160009054906101000a900473ffffffffffffffffffffffffffffffffffffffff1673ffffffffffffffffffffffffffffffffffffffff168173ffffffffffffffffffffffffffffffffffffffff1614806102385750600660008273ffffffffffffffffffffffffffffffffffffffff1673ffffffffffffffffffffffffffffffffffffffff16815260200190815260200160002060020160109054906101000a900460ff165b610277576040517f08c379a000000000000000000000000000000000000000000000000000000000815260040161026e90611340565b60405180910390fd5b60025460035492509250509091565b606033600160009054906101000a900473ffffffffffffffffffffffffffffffffffffffff1673ffffffffffffffffffffffffffffffffffffffff168173ffffffffffffffffffffffffffffffffffffffff1614806103315750600660008273ffffffffffffffffffffffffffffffffffffffff1673ffffffffffffffffffffffffffffffffffffffff16815260200190815260200160002060020160109054906101000a900460ff165b610370576040517f08c379a000000000000000000000000000000000000000000000000000000000815260040161036790611340565b60405180910390fd5b60606004805490506040519080825280602002602001820160405280156103b157816020015b61039e610ddf565b8152602001906001900390816103965790505b50905060008090505b6004805490508110156105b6576040518060600160405280600483815481106103df57fe5b90600052602060002090600291828204019190066010029054906101000a900460801b6fffffffffffffffffffffffffffffffff19168152602001600560006004858154811061042b57fe5b90600052602060002090600291828204019190066010029054906101000a900460801b6fffffffffffffffffffffffffffffffff19166fffffffffffffffffffffffffffffffff191681526020019081526020016000206000018054600181600116156101000203166002900480601f0160208091040260200160405190810160405280929190818152602001828054600181600116156101000203166002900480156105195780601f106104ee57610100808354040283529160200191610519565b820191906000526020600020905b8154815290600101906020018083116104fc57829003601f168201915b50505050508152602001600560006004858154811061053457fe5b90600052602060002090600291828204019190066010029054906101000a900460801b6fffffffffffffffffffffffffffffffff19166fffffffffffffffffffffffffffffffff191681526020019081526020016000206001015481525082828151811061059e57fe5b602002602001018190525080806001019150506103ba565b50809250505090565b6000544210610603576040517f08c379a00000000000000000000000000000000000000000000000000000000081526004016105fa90611300565b60405180910390fd5b8060056000826fffffffffffffffffffffffffffffffff19166fffffffffffffffffffffffffffffffff1916815260200190815260200160002060020160009054906101000a900460ff1661068d576040517f08c379a000000000000000000000000000000000000000000000000000000000815260040161068490611360565b60405180910390fd5b33600160149054906101000a900460ff1661073257600660008273ffffffffffffffffffffffffffffffffffffffff1673ffffffffffffffffffffffffffffffffffffffff16815260200190815260200160002060020160109054906101000a900460ff16610731576040517f08c379a0000000000000000000000000000000000000000000000000000000008152600401610728906112e0565b60405180910390fd5b5b33600160149054906101000a900460ff166107d857600660008273ffffffffffffffffffffffffffffffffffffffff1673ffffffffffffffffffffffffffffffffffffffff16815260200190815260200160002060010160009054906101000a900460ff16156107d7576040517f08c379a00000000000000000000000000000000000000000000000000000000081526004016107ce90611320565b60405180910390fd5b5b60016003600082825401925050819055506000600660003373ffffffffffffffffffffffffffffffffffffffff1673ffffffffffffffffffffffffffffffffffffffff168152602001908152602001600020905060018160010160006101000a81548160ff021916908315150217905550848160020160006101000a8154816fffffffffffffffffffffffffffffffff021916908360801c0217905550806000015460056000876fffffffffffffffffffffffffffffffff19166fffffffffffffffffffffffffffffffff19168152602001908152602001600020600101600082825401925050819055505050505050565b600054421061090e576040517f08c379a000000000000000000000000000000000000000000000000000000000815260040161090590611300565b60405180910390fd5b600160009054906101000a900473ffffffffffffffffffffffffffffffffffffffff1673ffffffffffffffffffffffffffffffffffffffff163373ffffffffffffffffffffffffffffffffffffffff161461099e576040517f08c379a000000000000000000000000000000000000000000000000000000000815260040161099590611380565b60405180910390fd5b80600160149054906101000a900460ff16610a4457600660008273ffffffffffffffffffffffffffffffffffffffff1673ffffffffffffffffffffffffffffffffffffffff16815260200190815260200160002060010160009054906101000a900460ff1615610a43576040517f08c379a0000000000000000000000000000000000000000000000000000000008152600401610a3a90611320565b60405180910390fd5b5b6000600660008473ffffffffffffffffffffffffffffffffffffffff1673ffffffffffffffffffffffffffffffffffffffff1681526020019081526020016000206000015414610a9357600080fd5b6001600660008473ffffffffffffffffffffffffffffffffffffffff1673ffffffffffffffffffffffffffffffffffffffff168152602001908152602001600020600001819055505050565b600160009054906101000a900473ffffffffffffffffffffffffffffffffffffffff1681565b610b0d610e13565b33600160009054906101000a900473ffffffffffffffffffffffffffffffffffffffff1673ffffffffffffffffffffffffffffffffffffffff168173ffffffffffffffffffffffffffffffffffffffff161480610bb65750600660008273ffffffffffffffffffffffffffffffffffffffff1673ffffffffffffffffffffffffffffffffffffffff16815260200190815260200160002060020160109054906101000a900460ff165b610bf5576040517f08c379a0000000000000000000000000000000000000000000000000000000008152600401610bec90611340565b60405180910390fd5b8260056000826fffffffffffffffffffffffffffffffff19166fffffffffffffffffffffffffffffffff1916815260200190815260200160002060020160009054906101000a900460ff16610c7f576040517f08c379a0000000000000000000000000000000000000000000000000000000008152600401610c7690611360565b60405180910390fd5b6040518060600160405280856fffffffffffffffffffffffffffffffff1916815260200160056000876fffffffffffffffffffffffffffffffff19166fffffffffffffffffffffffffffffffff191681526020019081526020016000206000018054600181600116156101000203166002900480601f016020809104026020016040519081016040528092919081815260200182805460018160011615610100020316600290048015610d735780601f10610d4857610100808354040283529160200191610d73565b820191906000526020600020905b815481529060010190602001808311610d5657829003601f168201915b5050505050815260200160056000876fffffffffffffffffffffffffffffffff19166fffffffffffffffffffffffffffffffff191681526020019081526020016000206001015481525092505050919050565b60005481565b600160149054906101000a900460ff1681565b604051806060016040528060006fffffffffffffffffffffffffffffffff1916815260200160608152602001600081525090565b604051806060016040528060006fffffffffffffffffffffffffffffffff1916815260200160608152602001600081525090565b600081359050610e5681611524565b92915050565b600081359050610e6b8161153b565b92915050565b600060208284031215610e8357600080fd5b6000610e9184828501610e47565b91505092915050565b600060208284031215610eac57600080fd5b6000610eba84828501610e5c565b91505092915050565b6000610ecf838361121a565b905092915050565b610ee08161146c565b82525050565b6000610ef182611416565b610efb8185611439565b935083602082028501610f0d85611406565b8060005b85811015610f495784840389528151610f2a8582610ec3565b9450610f358361142c565b925060208a01995050600181019050610f11565b50829750879550505050505092915050565b610f648161147e565b82525050565b610f738161148a565b82525050565b6000610f8482611421565b610f8e818561144a565b9350610f9e8185602086016114e0565b610fa781611513565b840191505092915050565b6000610fbf60228361145b565b91507f4552522d30343a20446f206e6f74206861766520766f74696e6720726967687460008301527f732e0000000000000000000000000000000000000000000000000000000000006020830152604082019050919050565b6000611025601f8361145b565b91507f4552522d30313a2054686520766f6f74696e672068617320636c6f7365642e006000830152602082019050919050565b600061106560208361145b565b91507f4552522d30353a2054686520766f74657220616c726561647920766f7465642e6000830152602082019050919050565b60006110a560228361145b565b91507f4552522d30363a20446f206e6f7420686176652061636365737320726967687460008301527f732e0000000000000000000000000000000000000000000000000000000000006020830152604082019050919050565b600061110b60258361145b565b91507f4552522d30333a205468652063616e64696461746520646f7365206e6f74206560008301527f786973742e0000000000000000000000000000000000000000000000000000006020830152604082019050919050565b600061117160308361145b565b91507f4552522d30323a204f6e6c79206368616972706572736f6e2063616e2067697660008301527f6520726967687420746f20766f74652e000000000000000000000000000000006020830152604082019050919050565b60006060830160008301516111e26000860182610f6a565b50602083015184820360208601526111fa8282610f79565b915050604083015161120f604086018261126a565b508091505092915050565b60006060830160008301516112326000860182610f6a565b506020830151848203602086015261124a8282610f79565b915050604083015161125f604086018261126a565b508091505092915050565b611273816114d6565b82525050565b611282816114d6565b82525050565b600060208201905061129d6000830184610ed7565b92915050565b600060208201905081810360008301526112bd8184610ee6565b905092915050565b60006020820190506112da6000830184610f5b565b92915050565b600060208201905081810360008301526112f981610fb2565b9050919050565b6000602082019050818103600083015261131981611018565b9050919050565b6000602082019050818103600083015261133981611058565b9050919050565b6000602082019050818103600083015261135981611098565b9050919050565b60006020820190508181036000830152611379816110fe565b9050919050565b6000602082019050818103600083015261139981611164565b9050919050565b600060208201905081810360008301526113ba81846111ca565b905092915050565b60006020820190506113d76000830184611279565b92915050565b60006040820190506113f26000830185611279565b6113ff6020830184611279565b9392505050565b6000819050602082019050919050565b600081519050919050565b600081519050919050565b6000602082019050919050565b600082825260208201905092915050565b600082825260208201905092915050565b600082825260208201905092915050565b6000611477826114b6565b9050919050565b60008115159050919050565b60007fffffffffffffffffffffffffffffffff0000000000000000000000000000000082169050919050565b600073ffffffffffffffffffffffffffffffffffffffff82169050919050565b6000819050919050565b60005b838110156114fe5780820151818401526020810190506114e3565b8381111561150d576000848401525b50505050565b6000601f19601f8301169050919050565b61152d8161146c565b811461153857600080fd5b50565b6115448161148a565b811461154f57600080fd5b5056fea365627a7a723158203d46e33ae7cd92b720def5942a329a59279a56d391a8a520a55fbef534a409716c6578706572696d656e74616cf564736f6c63430005100040",
  "source": "// pragma solidity ^0.7.0;\r\npragma experimental ABIEncoderV2;\r\n\r\n/// @title  v1.1 2021.3.20\r\n/// @author  \r\ncontract BaseVote {\r\n    /// @notice  \r\n    struct Candidate {\r\n        string name;       // \r\n        uint ballot;       // \r\n        bool valid;        //  \r\n    }\r\n\r\n    /// @notice  \r\n    struct Voter {\r\n        uint weight;        // \r\n        bool voted;         // \r\n        address delegate;   // \r\n        bytes16 proposal;   // \r\n        bool valid;         // \r\n    }\r\n\r\n    /// @notice \r\n    struct CandidateInfo {\r\n        bytes16 key;\r\n        string name;\r\n        uint ballot;\r\n    }\r\n    \r\n    uint public expiry;         // \r\n    address public proposer;    // \r\n    bool public open;           // \r\n    uint totalVoter;            // \r\n    uint doneVoter;             // \r\n    bytes16[] candidateKeys;    // \r\n    mapping (bytes16 => Candidate) candidates;  // \r\n    mapping (address => Voter) voters;          // \r\n\r\n\r\n    /// @notice \r\n    modifier valid() {\r\n        require(block.timestamp < expiry, \"ERR-01: The vooting has closed.\");\r\n        _;\r\n    }\r\n\r\n    /// @notice \r\n    modifier proposerOnly() {\r\n        require(msg.sender == proposer, \"ERR-02: Only chairperson can give right to vote.\");\r\n        _;\r\n    }\r\n\r\n    /// @notice \r\n    /// @param cand bytes16 key\r\n    modifier existCandidate(bytes16 cand) {\r\n        require(candidates[cand].valid, \"ERR-03: The candidate dose not exist.\");\r\n        _;\r\n    }\r\n\r\n    /// @notice \r\n    /// @param voter address \r\n    modifier votable(address voter) {\r\n        if (!open) {\r\n            require(voters[voter].valid, \"ERR-04: Do not have voting rights.\");\r\n        }\r\n        _;\r\n    }\r\n\r\n    /// @notice \r\n    /// @param voter address \r\n    modifier didnotVote(address voter) {\r\n        if (!open) {\r\n            require(!voters[voter].voted, \"ERR-05: The voter already voted.\");\r\n        }\r\n        _;\r\n    }\r\n\r\n    /// @notice \r\n    /// @param sender \r\n    modifier proposerOrVoter(address sender) {\r\n        require(sender == proposer || voters[sender].valid, \"ERR-06: Do not have access rights.\");\r\n        _;\r\n    }\r\n\r\n    /// @notice \r\n    /// @param keys bytes16[] MD5\r\n    /// @param cands string[] \r\n    /// @param parts address[] \r\n    constructor(bytes16[] memory keys, string[] memory cands, address[] memory parts, bool pub, uint lifetime) public {\r\n        proposer = msg.sender;\r\n        open = pub;\r\n        candidateKeys = new bytes16[](keys.length);\r\n        totalVoter = uint(keys.length);\r\n        doneVoter = uint(0);\r\n        expiry = block.timestamp + lifetime;\r\n        for (uint i=0; i<keys.length; i++) {\r\n            candidateKeys.push(keys[i]);\r\n            candidates[keys[i]] = Candidate({\r\n                name: cands[i],\r\n                ballot: 0,\r\n                valid: true\r\n            });\r\n        }\r\n        for (uint i=0; i<parts.length; i++) {\r\n            voters[parts[i]] = Voter({\r\n                weight: 1,\r\n                voted: false,\r\n                proposal: bytes16(0x0),\r\n                delegate: address(0x0),\r\n                valid: true\r\n            });\r\n        }\r\n    }\r\n\r\n    /// @notice \r\n    /// @param voter address - \r\n    function giveRightToVote(address voter) public valid proposerOnly didnotVote(voter) {\r\n        require(voters[voter].weight == 0);\r\n        voters[voter].weight = 1;\r\n    }\r\n\r\n    /// @notice \r\n    /// @param cand bytes16 - \r\n    function vote(bytes16 cand) public valid existCandidate(cand) votable(msg.sender) didnotVote(msg.sender) {\r\n        doneVoter += 1;\r\n        Voter storage voter = voters[msg.sender];\r\n        voter.voted = true;\r\n        voter.proposal = cand;\r\n        candidates[cand].ballot += voter.weight;\r\n    }\r\n\r\n    /// @notice \r\n    /// @return cands CandidateInfo[] - \r\n    function getAllCandidates() public view proposerOrVoter(msg.sender) returns(CandidateInfo[] memory cands) {\r\n        CandidateInfo[] memory candInfos = new CandidateInfo[](candidateKeys.length);\r\n        for (uint i=0; i<candidateKeys.length; i++) {\r\n            candInfos[i] = CandidateInfo({\r\n                key: candidateKeys[i],\r\n                name: candidates[candidateKeys[i]].name,\r\n                ballot: candidates[candidateKeys[i]].ballot\r\n            });\r\n        }\r\n        return candInfos;\r\n    }\r\n    \r\n    /// @notice \r\n    /// @param key bytes16 - key\r\n    /// @return cand CandidateInfo - \r\n    function getOneCandidate(bytes16 key) public view proposerOrVoter(msg.sender) existCandidate(key) returns(CandidateInfo memory cand) {\r\n        return CandidateInfo({\r\n            key: key,\r\n            name: candidates[key].name,\r\n            ballot: candidates[key].ballot\r\n        });\r\n    }\r\n\r\n    /// @notice \r\n    /// @return total uint - \r\n    /// @return done uint - \r\n    function getCandition() public view proposerOrVoter(msg.sender) returns(uint total, uint done) {\r\n        return (totalVoter, doneVoter);\r\n    }\r\n}",
  "sourcePath": "D:/_Projects/easyvote/backend/contracts/BaseVote.sol",
  "compiler": {
    "name": "solc",
    "version": "0.5.16+commit.9c3226ce.Emscripten.clang"
  },
  "schemaVersion": "3.3.3",
  "updatedAt": "2021-03-20T08:38:53.440Z",
  "devdoc": {
    "author": " ",
    "methods": {
      "constructor": {
        "params": {
          "cands": "string[] ",
          "keys": "bytes16[] MD5",
          "parts": "address[] "
        }
      },
      "getAllCandidates()": {
        "return": "cands CandidateInfo[] - "
      },
      "getCandition()": {
        "return": "total uint - done uint - "
      },
      "getOneCandidate(bytes16)": {
        "params": {
          "key": "bytes16 - key"
        },
        "return": "cand CandidateInfo - "
      },
      "giveRightToVote(address)": {
        "params": {
          "voter": "address - "
        }
      },
      "vote(bytes16)": {
        "params": {
          "cand": "bytes16 - "
        }
      }
    },
    "title": " v1.1 2021.3.20"
  },
  "userdoc": {
    "methods": {
      "constructor": "",
      "getAllCandidates()": {
        "notice": ""
      },
      "getCandition()": {
        "notice": ""
      },
      "getOneCandidate(bytes16)": {
        "notice": ""
      },
      "giveRightToVote(address)": {
        "notice": ""
      },
      "vote(bytes16)": {
        "notice": ""
      }
    }
  }
}