{
  "contractName": "BaseVote",
  "abi": [
    {
      "inputs": [
        {
          "internalType": "bytes16[]",
          "name": "keys",
          "type": "bytes16[]"
        },
        {
          "internalType": "string[]",
          "name": "cands",
          "type": "string[]"
        },
        {
          "internalType": "address[]",
          "name": "parts",
          "type": "address[]"
        },
        {
          "internalType": "bool",
          "name": "pub",
          "type": "bool"
        },
        {
          "internalType": "uint256",
          "name": "lifetime",
          "type": "uint256"
        }
      ],
      "payable": false,
      "stateMutability": "nonpayable",
      "type": "constructor"
    },
    {
      "constant": true,
      "inputs": [],
      "name": "expiry",
      "outputs": [
        {
          "internalType": "uint256",
          "name": "",
          "type": "uint256"
        }
      ],
      "payable": false,
      "stateMutability": "view",
      "type": "function"
    },
    {
      "constant": true,
      "inputs": [],
      "name": "open",
      "outputs": [
        {
          "internalType": "bool",
          "name": "",
          "type": "bool"
        }
      ],
      "payable": false,
      "stateMutability": "view",
      "type": "function"
    },
    {
      "constant": true,
      "inputs": [],
      "name": "proposer",
      "outputs": [
        {
          "internalType": "address",
          "name": "",
          "type": "address"
        }
      ],
      "payable": false,
      "stateMutability": "view",
      "type": "function"
    },
    {
      "constant": true,
      "inputs": [],
      "name": "title",
      "outputs": [
        {
          "internalType": "string",
          "name": "",
          "type": "string"
        }
      ],
      "payable": false,
      "stateMutability": "view",
      "type": "function"
    },
    {
      "constant": false,
      "inputs": [
        {
          "internalType": "address",
          "name": "voter",
          "type": "address"
        }
      ],
      "name": "giveRightToVote",
      "outputs": [],
      "payable": false,
      "stateMutability": "nonpayable",
      "type": "function"
    },
    {
      "constant": false,
      "inputs": [
        {
          "internalType": "bytes16",
          "name": "cand",
          "type": "bytes16"
        }
      ],
      "name": "vote",
      "outputs": [],
      "payable": false,
      "stateMutability": "nonpayable",
      "type": "function"
    },
    {
      "constant": true,
      "inputs": [],
      "name": "getAllCandidates",
      "outputs": [
        {
          "components": [
            {
              "internalType": "bytes16",
              "name": "key",
              "type": "bytes16"
            },
            {
              "internalType": "string",
              "name": "name",
              "type": "string"
            },
            {
              "internalType": "uint256",
              "name": "ballot",
              "type": "uint256"
            }
          ],
          "internalType": "struct BaseVote.CandidateInfo[]",
          "name": "cands",
          "type": "tuple[]"
        }
      ],
      "payable": false,
      "stateMutability": "view",
      "type": "function"
    },
    {
      "constant": true,
      "inputs": [
        {
          "internalType": "bytes16",
          "name": "key",
          "type": "bytes16"
        }
      ],
      "name": "getOneCandidate",
      "outputs": [
        {
          "components": [
            {
              "internalType": "bytes16",
              "name": "key",
              "type": "bytes16"
            },
            {
              "internalType": "string",
              "name": "name",
              "type": "string"
            },
            {
              "internalType": "uint256",
              "name": "ballot",
              "type": "uint256"
            }
          ],
          "internalType": "struct BaseVote.CandidateInfo",
          "name": "cand",
          "type": "tuple"
        }
      ],
      "payable": false,
      "stateMutability": "view",
      "type": "function"
    },
    {
      "constant": true,
      "inputs": [],
      "name": "getCandition",
      "outputs": [
        {
          "internalType": "uint256",
          "name": "total",
          "type": "uint256"
        },
        {
          "internalType": "uint256",
          "name": "done",
          "type": "uint256"
        }
      ],
      "payable": false,
      "stateMutability": "view",
      "type": "function"
    }
  ],
  "bytecode": "0x60806040523480156200001157600080fd5b5060405162002175380380620021758339818101604052620000379190810190620007f7565b33600260006101000a81548173ffffffffffffffffffffffffffffffffffffffff021916908373ffffffffffffffffffffffffffffffffffffffff16021790555081600260146101000a81548160ff0219169083151502179055508451604051908082528060200260200182016040528015620000c35781602001602082028038833980820191505090505b5060059080519060200190620000db929190620003eb565b508451600381905550600060048190555080420160018190555060008090505b85518110156200024d5760058682815181106200011457fe5b6020026020010151908060018154018082558091505090600182039060005260206000209060029182820401919006601002909192909190916101000a8154816fffffffffffffffffffffffffffffffff021916908360801c02179055505060405180606001604052808683815181106200018b57fe5b60200260200101518152602001600081526020016001151581525060066000888481518110620001b757fe5b60200260200101516fffffffffffffffffffffffffffffffff19166fffffffffffffffffffffffffffffffff19168152602001908152602001600020600082015181600001908051906020019062000211929190620004b7565b506020820151816001015560408201518160020160006101000a81548160ff0219169083151502179055509050508080600101915050620000fb565b5060008090505b8351811015620003df576040518060a0016040528060018152602001600015158152602001600073ffffffffffffffffffffffffffffffffffffffff168152602001600060801b6fffffffffffffffffffffffffffffffff191681526020016001151581525060076000868481518110620002cb57fe5b602002602001015173ffffffffffffffffffffffffffffffffffffffff1673ffffffffffffffffffffffffffffffffffffffff1681526020019081526020016000206000820151816000015560208201518160010160006101000a81548160ff02191690831515021790555060408201518160010160016101000a81548173ffffffffffffffffffffffffffffffffffffffff021916908373ffffffffffffffffffffffffffffffffffffffff16021790555060608201518160020160006101000a8154816fffffffffffffffffffffffffffffffff021916908360801c021790555060808201518160020160106101000a81548160ff021916908315150217905550905050808060010191505062000254565b50505050505062000aae565b82805482825590600052602060002090600101600290048101928215620004a45791602002820160005b838211156200046457835183826101000a8154816fffffffffffffffffffffffffffffffff021916908360801c02179055509260200192601001602081600f0104928301926001030262000415565b8015620004a25782816101000a8154906fffffffffffffffffffffffffffffffff0219169055601001602081600f0104928301926001030262000464565b505b509050620004b391906200053e565b5090565b828054600181600116156101000203166002900490600052602060002090601f016020900481019282601f10620004fa57805160ff19168380011785556200052b565b828001600101855582156200052b579182015b828111156200052a5782518255916020019190600101906200050d565b5b5090506200053a919062000580565b5090565b6200057d91905b808211156200057957600081816101000a8154906fffffffffffffffffffffffffffffffff02191690555060010162000545565b5090565b90565b620005a591905b80821115620005a157600081600090555060010162000587565b5090565b90565b600081519050620005b98162000a46565b92915050565b600082601f830112620005d157600080fd5b8151620005e8620005e282620008f2565b620008c4565b915081818352602084019350602081019050838560208402820111156200060e57600080fd5b60005b83811015620006425781620006278882620005a8565b84526020840193506020830192505060018101905062000611565b5050505092915050565b600082601f8301126200065e57600080fd5b8151620006756200066f826200091b565b620008c4565b915081818352602084019350602081019050838560208402820111156200069b57600080fd5b60005b83811015620006cf5781620006b488826200076d565b8452602084019350602083019250506001810190506200069e565b5050505092915050565b600082601f830112620006eb57600080fd5b815162000702620006fc8262000944565b620008c4565b9150818183526020840193506020810190508360005b838110156200074c578151860162000731888262000784565b84526020840193506020830192505060018101905062000718565b5050505092915050565b600081519050620007678162000a60565b92915050565b6000815190506200077e8162000a7a565b92915050565b600082601f8301126200079657600080fd5b8151620007ad620007a7826200096d565b620008c4565b91508082526020830160208301858383011115620007ca57600080fd5b620007d783828462000a10565b50505092915050565b600081519050620007f18162000a94565b92915050565b600080600080600060a086880312156200081057600080fd5b600086015167ffffffffffffffff8111156200082b57600080fd5b62000839888289016200064c565b955050602086015167ffffffffffffffff8111156200085757600080fd5b6200086588828901620006d9565b945050604086015167ffffffffffffffff8111156200088357600080fd5b6200089188828901620005bf565b9350506060620008a48882890162000756565b9250506080620008b788828901620007e0565b9150509295509295909350565b6000604051905081810181811067ffffffffffffffff82111715620008e857600080fd5b8060405250919050565b600067ffffffffffffffff8211156200090a57600080fd5b602082029050602081019050919050565b600067ffffffffffffffff8211156200093357600080fd5b602082029050602081019050919050565b600067ffffffffffffffff8211156200095c57600080fd5b602082029050602081019050919050565b600067ffffffffffffffff8211156200098557600080fd5b601f19601f8301169050602081019050919050565b6000620009a782620009e6565b9050919050565b60008115159050919050565b60007fffffffffffffffffffffffffffffffff0000000000000000000000000000000082169050919050565b600073ffffffffffffffffffffffffffffffffffffffff82169050919050565b6000819050919050565b60005b8381101562000a3057808201518184015260208101905062000a13565b8381111562000a40576000848401525b50505050565b62000a51816200099a565b811462000a5d57600080fd5b50565b62000a6b81620009ae565b811462000a7757600080fd5b50565b62000a8581620009ba565b811462000a9157600080fd5b50565b62000a9f8162000a06565b811462000aab57600080fd5b50565b6116b78062000abe6000396000f3fe608060405234801561001057600080fd5b50600436106100935760003560e01c80639e7b8d61116100665780639e7b8d611461010f578063a8e4fb901461012b578063dd17807614610149578063e184c9be14610179578063fcfff16f1461019757610093565b80631e43cc6a146100985780632e6997fe146100b75780634a79d50c146100d55780637d56c366146100f3575b600080fd5b6100a06101b5565b6040516100ae9291906114ff565b60405180910390f35b6100bf6102af565b6040516100cc91906113a3565b60405180910390f35b6100dd6105e8565b6040516100ea91906113e0565b60405180910390f35b61010d60048036036101089190810190610f61565b610686565b005b61012960048036036101249190810190610f38565b610991565b005b610133610ba6565b6040516101409190611388565b60405180910390f35b610163600480360361015e9190810190610f61565b610bcc565b60405161017091906114c2565b60405180910390f35b610181610e8d565b60405161018e91906114e4565b60405180910390f35b61019f610e93565b6040516101ac91906113c5565b60405180910390f35b60008033600260009054906101000a900473ffffffffffffffffffffffffffffffffffffffff1673ffffffffffffffffffffffffffffffffffffffff168173ffffffffffffffffffffffffffffffffffffffff1614806102615750600760008273ffffffffffffffffffffffffffffffffffffffff1673ffffffffffffffffffffffffffffffffffffffff16815260200190815260200160002060020160109054906101000a900460ff165b6102a0576040517f08c379a000000000000000000000000000000000000000000000000000000000815260040161029790611462565b60405180910390fd5b60035460045492509250509091565b606033600260009054906101000a900473ffffffffffffffffffffffffffffffffffffffff1673ffffffffffffffffffffffffffffffffffffffff168173ffffffffffffffffffffffffffffffffffffffff16148061035a5750600760008273ffffffffffffffffffffffffffffffffffffffff1673ffffffffffffffffffffffffffffffffffffffff16815260200190815260200160002060020160109054906101000a900460ff165b610399576040517f08c379a000000000000000000000000000000000000000000000000000000000815260040161039090611462565b60405180910390fd5b60606005805490506040519080825280602002602001820160405280156103da57816020015b6103c7610ea6565b8152602001906001900390816103bf5790505b50905060008090505b6005805490508110156105df5760405180606001604052806005838154811061040857fe5b90600052602060002090600291828204019190066010029054906101000a900460801b6fffffffffffffffffffffffffffffffff19168152602001600660006005858154811061045457fe5b90600052602060002090600291828204019190066010029054906101000a900460801b6fffffffffffffffffffffffffffffffff19166fffffffffffffffffffffffffffffffff191681526020019081526020016000206000018054600181600116156101000203166002900480601f0160208091040260200160405190810160405280929190818152602001828054600181600116156101000203166002900480156105425780601f1061051757610100808354040283529160200191610542565b820191906000526020600020905b81548152906001019060200180831161052557829003601f168201915b50505050508152602001600660006005858154811061055d57fe5b90600052602060002090600291828204019190066010029054906101000a900460801b6fffffffffffffffffffffffffffffffff19166fffffffffffffffffffffffffffffffff19168152602001908152602001600020600101548152508282815181106105c757fe5b602002602001018190525080806001019150506103e3565b50809250505090565b60008054600181600116156101000203166002900480601f01602080910402602001604051908101604052809291908181526020018280546001816001161561010002031660029004801561067e5780601f106106535761010080835404028352916020019161067e565b820191906000526020600020905b81548152906001019060200180831161066157829003601f168201915b505050505081565b60015442106106ca576040517f08c379a00000000000000000000000000000000000000000000000000000000081526004016106c190611422565b60405180910390fd5b8060066000826fffffffffffffffffffffffffffffffff19166fffffffffffffffffffffffffffffffff1916815260200190815260200160002060020160009054906101000a900460ff16610754576040517f08c379a000000000000000000000000000000000000000000000000000000000815260040161074b90611482565b60405180910390fd5b33600260149054906101000a900460ff166107f957600760008273ffffffffffffffffffffffffffffffffffffffff1673ffffffffffffffffffffffffffffffffffffffff16815260200190815260200160002060020160109054906101000a900460ff166107f8576040517f08c379a00000000000000000000000000000000000000000000000000000000081526004016107ef90611402565b60405180910390fd5b5b33600260149054906101000a900460ff1661089f57600760008273ffffffffffffffffffffffffffffffffffffffff1673ffffffffffffffffffffffffffffffffffffffff16815260200190815260200160002060010160009054906101000a900460ff161561089e576040517f08c379a000000000000000000000000000000000000000000000000000000000815260040161089590611442565b60405180910390fd5b5b60016004600082825401925050819055506000600760003373ffffffffffffffffffffffffffffffffffffffff1673ffffffffffffffffffffffffffffffffffffffff168152602001908152602001600020905060018160010160006101000a81548160ff021916908315150217905550848160020160006101000a8154816fffffffffffffffffffffffffffffffff021916908360801c0217905550806000015460066000876fffffffffffffffffffffffffffffffff19166fffffffffffffffffffffffffffffffff19168152602001908152602001600020600101600082825401925050819055505050505050565b60015442106109d5576040517f08c379a00000000000000000000000000000000000000000000000000000000081526004016109cc90611422565b60405180910390fd5b600260009054906101000a900473ffffffffffffffffffffffffffffffffffffffff1673ffffffffffffffffffffffffffffffffffffffff163373ffffffffffffffffffffffffffffffffffffffff1614610a65576040517f08c379a0000000000000000000000000000000000000000000000000000000008152600401610a5c906114a2565b60405180910390fd5b80600260149054906101000a900460ff16610b0b57600760008273ffffffffffffffffffffffffffffffffffffffff1673ffffffffffffffffffffffffffffffffffffffff16815260200190815260200160002060010160009054906101000a900460ff1615610b0a576040517f08c379a0000000000000000000000000000000000000000000000000000000008152600401610b0190611442565b60405180910390fd5b5b6000600760008473ffffffffffffffffffffffffffffffffffffffff1673ffffffffffffffffffffffffffffffffffffffff1681526020019081526020016000206000015414610b5a57600080fd5b6001600760008473ffffffffffffffffffffffffffffffffffffffff1673ffffffffffffffffffffffffffffffffffffffff168152602001908152602001600020600001819055505050565b600260009054906101000a900473ffffffffffffffffffffffffffffffffffffffff1681565b610bd4610eda565b33600260009054906101000a900473ffffffffffffffffffffffffffffffffffffffff1673ffffffffffffffffffffffffffffffffffffffff168173ffffffffffffffffffffffffffffffffffffffff161480610c7d5750600760008273ffffffffffffffffffffffffffffffffffffffff1673ffffffffffffffffffffffffffffffffffffffff16815260200190815260200160002060020160109054906101000a900460ff165b610cbc576040517f08c379a0000000000000000000000000000000000000000000000000000000008152600401610cb390611462565b60405180910390fd5b8260066000826fffffffffffffffffffffffffffffffff19166fffffffffffffffffffffffffffffffff1916815260200190815260200160002060020160009054906101000a900460ff16610d46576040517f08c379a0000000000000000000000000000000000000000000000000000000008152600401610d3d90611482565b60405180910390fd5b6040518060600160405280856fffffffffffffffffffffffffffffffff1916815260200160066000876fffffffffffffffffffffffffffffffff19166fffffffffffffffffffffffffffffffff191681526020019081526020016000206000018054600181600116156101000203166002900480601f016020809104026020016040519081016040528092919081815260200182805460018160011615610100020316600290048015610e3a5780601f10610e0f57610100808354040283529160200191610e3a565b820191906000526020600020905b815481529060010190602001808311610e1d57829003601f168201915b5050505050815260200160066000876fffffffffffffffffffffffffffffffff19166fffffffffffffffffffffffffffffffff191681526020019081526020016000206001015481525092505050919050565b60015481565b600260149054906101000a900460ff1681565b604051806060016040528060006fffffffffffffffffffffffffffffffff1916815260200160608152602001600081525090565b604051806060016040528060006fffffffffffffffffffffffffffffffff1916815260200160608152602001600081525090565b600081359050610f1d81611646565b92915050565b600081359050610f328161165d565b92915050565b600060208284031215610f4a57600080fd5b6000610f5884828501610f0e565b91505092915050565b600060208284031215610f7357600080fd5b6000610f8184828501610f23565b91505092915050565b6000610f96838361131a565b905092915050565b610fa78161158e565b82525050565b6000610fb882611538565b610fc2818561155b565b935083602082028501610fd485611528565b8060005b858110156110105784840389528151610ff18582610f8a565b9450610ffc8361154e565b925060208a01995050600181019050610fd8565b50829750879550505050505092915050565b61102b816115a0565b82525050565b61103a816115ac565b82525050565b600061104b82611543565b611055818561156c565b9350611065818560208601611602565b61106e81611635565b840191505092915050565b600061108482611543565b61108e818561157d565b935061109e818560208601611602565b6110a781611635565b840191505092915050565b60006110bf60228361157d565b91507f4552522d30343a20446f206e6f74206861766520766f74696e6720726967687460008301527f732e0000000000000000000000000000000000000000000000000000000000006020830152604082019050919050565b6000611125601f8361157d565b91507f4552522d30313a2054686520766f6f74696e672068617320636c6f7365642e006000830152602082019050919050565b600061116560208361157d565b91507f4552522d30353a2054686520766f74657220616c726561647920766f7465642e6000830152602082019050919050565b60006111a560228361157d565b91507f4552522d30363a20446f206e6f7420686176652061636365737320726967687460008301527f732e0000000000000000000000000000000000000000000000000000000000006020830152604082019050919050565b600061120b60258361157d565b91507f4552522d30333a205468652063616e64696461746520646f7365206e6f74206560008301527f786973742e0000000000000000000000000000000000000000000000000000006020830152604082019050919050565b600061127160308361157d565b91507f4552522d30323a204f6e6c79206368616972706572736f6e2063616e2067697660008301527f6520726967687420746f20766f74652e000000000000000000000000000000006020830152604082019050919050565b60006060830160008301516112e26000860182611031565b50602083015184820360208601526112fa8282611040565b915050604083015161130f604086018261136a565b508091505092915050565b60006060830160008301516113326000860182611031565b506020830151848203602086015261134a8282611040565b915050604083015161135f604086018261136a565b508091505092915050565b611373816115f8565b82525050565b611382816115f8565b82525050565b600060208201905061139d6000830184610f9e565b92915050565b600060208201905081810360008301526113bd8184610fad565b905092915050565b60006020820190506113da6000830184611022565b92915050565b600060208201905081810360008301526113fa8184611079565b905092915050565b6000602082019050818103600083015261141b816110b2565b9050919050565b6000602082019050818103600083015261143b81611118565b9050919050565b6000602082019050818103600083015261145b81611158565b9050919050565b6000602082019050818103600083015261147b81611198565b9050919050565b6000602082019050818103600083015261149b816111fe565b9050919050565b600060208201905081810360008301526114bb81611264565b9050919050565b600060208201905081810360008301526114dc81846112ca565b905092915050565b60006020820190506114f96000830184611379565b92915050565b60006040820190506115146000830185611379565b6115216020830184611379565b9392505050565b6000819050602082019050919050565b600081519050919050565b600081519050919050565b6000602082019050919050565b600082825260208201905092915050565b600082825260208201905092915050565b600082825260208201905092915050565b6000611599826115d8565b9050919050565b60008115159050919050565b60007fffffffffffffffffffffffffffffffff0000000000000000000000000000000082169050919050565b600073ffffffffffffffffffffffffffffffffffffffff82169050919050565b6000819050919050565b60005b83811015611620578082015181840152602081019050611605565b8381111561162f576000848401525b50505050565b6000601f19601f8301169050919050565b61164f8161158e565b811461165a57600080fd5b50565b611666816115ac565b811461167157600080fd5b5056fea365627a7a72315820cb225c177e5b18d3655b2cee8ff50470dc46fd77c7ce0d6762a094a3a4b600556c6578706572696d656e74616cf564736f6c63430005100040",
  "source": "// pragma solidity ^0.7.0;\r\npragma experimental ABIEncoderV2;\r\n\r\n/// @title  v1.1 2021.3.20\r\n/// @author  \r\ncontract BaseVote {\r\n    /// @notice  \r\n    struct Candidate {\r\n        string name;       // \r\n        uint ballot;       // \r\n        bool valid;        //  \r\n    }\r\n\r\n    /// @notice  \r\n    struct Voter {\r\n        uint weight;        // \r\n        bool voted;         // \r\n        address delegate;   // \r\n        bytes16 proposal;   // \r\n        bool valid;         // \r\n    }\r\n\r\n    /// @notice \r\n    struct CandidateInfo {\r\n        bytes16 key;\r\n        string name;\r\n        uint ballot;\r\n    }\r\n    \r\n    string public title;        // \r\n    uint public expiry;         // \r\n    address public proposer;    // \r\n    bool public open;           // \r\n    uint totalVoter;            // \r\n    uint doneVoter;             // \r\n    bytes16[] candidateKeys;    // \r\n    mapping (bytes16 => Candidate) candidates;  // \r\n    mapping (address => Voter) voters;          // \r\n\r\n\r\n    /// @notice \r\n    modifier valid() {\r\n        require(block.timestamp < expiry, \"ERR-01: The vooting has closed.\");\r\n        _;\r\n    }\r\n\r\n    /// @notice \r\n    modifier proposerOnly() {\r\n        require(msg.sender == proposer, \"ERR-02: Only chairperson can give right to vote.\");\r\n        _;\r\n    }\r\n\r\n    /// @notice \r\n    /// @param cand bytes16 key\r\n    modifier existCandidate(bytes16 cand) {\r\n        require(candidates[cand].valid, \"ERR-03: The candidate dose not exist.\");\r\n        _;\r\n    }\r\n\r\n    /// @notice \r\n    /// @param voter address \r\n    modifier votable(address voter) {\r\n        if (!open) {\r\n            require(voters[voter].valid, \"ERR-04: Do not have voting rights.\");\r\n        }\r\n        _;\r\n    }\r\n\r\n    /// @notice \r\n    /// @param voter address \r\n    modifier didnotVote(address voter) {\r\n        if (!open) {\r\n            require(!voters[voter].voted, \"ERR-05: The voter already voted.\");\r\n        }\r\n        _;\r\n    }\r\n\r\n    /// @notice \r\n    /// @param sender \r\n    modifier proposerOrVoter(address sender) {\r\n        require(sender == proposer || voters[sender].valid, \"ERR-06: Do not have access rights.\");\r\n        _;\r\n    }\r\n\r\n    /// @notice \r\n    /// @param keys bytes16[] MD5\r\n    /// @param cands string[] \r\n    /// @param parts address[] \r\n    constructor(bytes16[] memory keys, string[] memory cands, address[] memory parts, bool pub, uint lifetime) public {\r\n        proposer = msg.sender;\r\n        open = pub;\r\n        candidateKeys = new bytes16[](keys.length);\r\n        totalVoter = uint(keys.length);\r\n        doneVoter = uint(0);\r\n        expiry = block.timestamp + lifetime;\r\n        for (uint i=0; i<keys.length; i++) {\r\n            candidateKeys.push(keys[i]);\r\n            candidates[keys[i]] = Candidate({\r\n                name: cands[i],\r\n                ballot: 0,\r\n                valid: true\r\n            });\r\n        }\r\n        for (uint i=0; i<parts.length; i++) {\r\n            voters[parts[i]] = Voter({\r\n                weight: 1,\r\n                voted: false,\r\n                proposal: bytes16(0x0),\r\n                delegate: address(0x0),\r\n                valid: true\r\n            });\r\n        }\r\n    }\r\n\r\n    /// @notice \r\n    /// @param voter address - \r\n    function giveRightToVote(address voter) public valid proposerOnly didnotVote(voter) {\r\n        require(voters[voter].weight == 0);\r\n        voters[voter].weight = 1;\r\n    }\r\n\r\n    /// @notice \r\n    /// @param cand bytes16 - \r\n    function vote(bytes16 cand) public valid existCandidate(cand) votable(msg.sender) didnotVote(msg.sender) {\r\n        doneVoter += 1;\r\n        Voter storage voter = voters[msg.sender];\r\n        voter.voted = true;\r\n        voter.proposal = cand;\r\n        candidates[cand].ballot += voter.weight;\r\n    }\r\n\r\n    /// @notice \r\n    /// @return cands CandidateInfo[] - \r\n    function getAllCandidates() public view proposerOrVoter(msg.sender) returns(CandidateInfo[] memory cands) {\r\n        CandidateInfo[] memory candInfos = new CandidateInfo[](candidateKeys.length);\r\n        for (uint i=0; i<candidateKeys.length; i++) {\r\n            candInfos[i] = CandidateInfo({\r\n                key: candidateKeys[i],\r\n                name: candidates[candidateKeys[i]].name,\r\n                ballot: candidates[candidateKeys[i]].ballot\r\n            });\r\n        }\r\n        return candInfos;\r\n    }\r\n    \r\n    /// @notice \r\n    /// @param key bytes16 - key\r\n    /// @return cand CandidateInfo - \r\n    function getOneCandidate(bytes16 key) public view proposerOrVoter(msg.sender) existCandidate(key) returns(CandidateInfo memory cand) {\r\n        return CandidateInfo({\r\n            key: key,\r\n            name: candidates[key].name,\r\n            ballot: candidates[key].ballot\r\n        });\r\n    }\r\n\r\n    /// @notice \r\n    /// @return total uint - \r\n    /// @return done uint - \r\n    function getCandition() public view proposerOrVoter(msg.sender) returns(uint total, uint done) {\r\n        return (totalVoter, doneVoter);\r\n    }\r\n}",
  "sourcePath": "D:/_Projects/easyvote/backend/contracts/BaseVote.sol",
  "compiler": {
    "name": "solc",
    "version": "0.5.16+commit.9c3226ce.Emscripten.clang"
  },
  "schemaVersion": "3.3.3",
  "updatedAt": "2021-04-05T08:51:44.265Z",
  "devdoc": {
    "author": " ",
    "methods": {
      "constructor": {
        "params": {
          "cands": "string[] ",
          "keys": "bytes16[] MD5",
          "parts": "address[] "
        }
      },
      "getAllCandidates()": {
        "return": "cands CandidateInfo[] - "
      },
      "getCandition()": {
        "return": "total uint - done uint - "
      },
      "getOneCandidate(bytes16)": {
        "params": {
          "key": "bytes16 - key"
        },
        "return": "cand CandidateInfo - "
      },
      "giveRightToVote(address)": {
        "params": {
          "voter": "address - "
        }
      },
      "vote(bytes16)": {
        "params": {
          "cand": "bytes16 - "
        }
      }
    },
    "title": " v1.1 2021.3.20"
  },
  "userdoc": {
    "methods": {
      "constructor": "",
      "getAllCandidates()": {
        "notice": ""
      },
      "getCandition()": {
        "notice": ""
      },
      "getOneCandidate(bytes16)": {
        "notice": ""
      },
      "giveRightToVote(address)": {
        "notice": ""
      },
      "vote(bytes16)": {
        "notice": ""
      }
    }
  }
}